:020000040000FA
:10000000020F90754133754033753FB3753E4075AF
:1000100045337544337543B375424090FFC3E0FCEC
:10002000A3E0FDA3E0FEA3E0FF8F4D8E4C8D4B8C33
:100030004AE54D54FFF54DE54C5400F54CE54B5465
:1000400000F54BE54A5400F54A228F6EAF6E12114F
:02005000372255
:10005300020BDB02039EE86480F8E933E8336011A6
:100063000460F0ED33EC337009E8FCE9FDEAFEEBE4
:10007300FF220460DED3EB9FEA9EE99DE8C2E78C92
:10008300F0C2F795F0400CE8CCF8E9CDF9EACEFAE6
:10009300EBCFFB12036985D0F05804700320D5B36E
:1000A300E80470075002B2D50203A892D5EC0460AD
:1000B300F7E4CCC0E0C398F8603B94186008400DA7
:1000C300D0E0FB020380E4FBFAC9FC8028E830E4BB
:1000D30006E4C9FBE4CAFCE830E305E4C9CACBFC87
:1000E300E854076010F8C3E913F9EA13FAEB13FBBA
:1000F300EC13FCD8F130F52FC3E49CFCEF9BFFEE2F
:100103009AFEED99FDD0E0FBEF4E4D4C701222DBD1
:10011300030203A5EC2CFCEF33FFEE33FEED33FDBE
:10012300ED30E7EB020380EF2BFFEE3AFEED39FDF6
:10013300D0E0FB50130BBB00030203A8ED13FDEE4D
:1001430013FEEF13FFEC13FC020380EC4D6011E888
:10015300497017ED33EC3304600DE4FCFFFEFD2220
:10016300E933E8330470F802039E1203695804600C
:1001730009E4CC248150062850090203A82840032F
:100183000203A5C0E0EB4A7044B98006D0E0FB024D
:100193000394EF4E701CBD8008EBFFEAFEE9FD807F
:1001A300EBE98DF0A4FEE5F0020237E9CDF9EAFEB2
:1001B300EBFFEF89F0A4FCE5F0CE89F0A42EFFE479
:1001C30035F0CD89F0A42DFEE435F08067EF4E7055
:1001D30005BD80D780C3EF8BF0A4ACF0EE8BF0A409
:1001E3002CFCE435F0F8EF8AF0A42CE5F038FCE4BD
:1001F30033CB8DF0A42CFCE5F03BF8EE8AF0A42C75
:10020300FCE5F038F8E433CF89F0A42CFCE5F038B2
:10021300CF3400CE89F0A42FFFE5F03EFEE433C9CE
:100223008DF0A42EFEE5F039CD8AF0A42FFFE5F082
:100233003EFEE43DFD33D0E0FB50070BBB000F0255
:1002430003A8EC2CFCEF33FFEE33FEED33FD02038A
:10025300800203A8EC5D046005E8590470030203FF
:100263009E120369580460F6EC4860F2EC7004FDDA
:10027300FEFF22C860DB2481C85009C39860025086
:10028300060203A59850CAF582E9294B4A7005ABCB
:100293008202039475F0007C1A7880C3EF9BEE9A78
:1002A300ED99400DC3EF9BFFEE9AFEED99FDE842F9
:1002B300F0DC23ACF0D0E0FFD0E0FED0E0FDAB8279
:1002C30020E7101BEB60BAEC2CFCEF33FFEE33FEA0
:1002D300ED33FD020380E803F830E705C0F075F065
:1002E30000EF2FFFEE33FEED33FD40B830E7C28061
:1002F300AA75F020800E75F010800575F0087D005A
:100303007E007F003392D530D5031206CAEC33400A
:1003130010EF33FFEE33FEED33FDEC33FCD5F0EDA0
:1003230022E5F0247EA2D513CC92E7CDCEFF22EDB9
:10033300D2E7CD33EC3392D524814006E4FFFEFDB2
:10034300FC22FCE4CFCECDCC24E0501174FF80ED31
:10035300C3CC13CCCD13CDCE13CECF13CF0470F0BB
:1003630030D5DE0206CAE9D2E7C933E833F892D5BD
:10037300EDD2E7CD33EC33FC5002B2D522EC30E7BB
:10038300100FBF000C0EBE00080DBD00040BEB6088
:1003930014A2D5EB13FCED92E7FD2274FFFCFDFEE6
:1003A300FF22E480F8A2D574FF13FC7D80E480EF84
:1003B300F920E72824F950037907E4F42402FB1811
:1003C300DBFDE624FB5014E9600DE4F618E604F6C1
:1003D300B40A08E4F6D9F57401F60A22C2D522ED6F
:1003E30033EC3392D5FA602AB4FF33EDC2E77BFFD7
:1003F30060067A047907E4227A04791020D5047A16
:1004030004790B224E614E002B494E46002D494E76
:100413004600E47A08F608DAFC7B00740722E8C099
:10042300E0ECC0E0EDC0E0EEC0E0EFC0E0EA75F064
:1004330010A4CAABF075F04DA42BFBE435F0FCEA35
:100443002410FAEB34C5FBEC34D9FCEDC2E7FF759D
:10045300F056A4F42411C5F0F434C58FF0A42AE5B2
:10046300F03BE43CF620E714120515D0E0FFD0E0A2
:10047300FED0E0FDD0E0FC1202578014F404120514
:1004830015D0E0FFD0E0FED0E0FDD0E0FC12014E3D
:10049300D0E0F8E6FAEDD2E7CD33EC332482FBE487
:1004A300C3CF33CFCE33CECD33CD33DBF37B077521
:1004B300F00A846004F6081B0AE5F0F6088FF0746E
:1004C3000AA4FFACF08EF0740AA42CFEACF0500129
:1004D3000C8DF0740AA42CFDE435F0F608DBDE7411
:1004E30007223F8000004120000042C80000447AF8
:1004F3000000461C400047C35000497424004B18B9
:1005030096804CBEBC205A0E1BCA6753C21C749DF6
:10051300C5AEFB60065407601C2323120543EB544E
:1005230038600912052F12053E12014EECF8EDF961
:10053300EEFAEFCB22EB12053E80F1543803241C74
:100543009004E5FE93FC0EEE93FD0EEE930ECE9318
:10055300FF22BB010689828A83E0225002E722BB85
:10056300FE02E32289828A83E49322BB010CE582A3
:1005730029F582E5833AF583E0225006E92582F8DE
:10058300E622BBFE06E92582F8E222E58229F5820E
:10059300E5833AF583E49322BB010689828A83F0DB
:1005A300225002F722BBFE01F322E88FF0A4CC8B8A
:1005B300F0A42CFCE98EF0A42CFC8AF0EDA42CFC16
:1005C300EA8EF0A4CDA8F08BF0A42DCC3825F0FD55
:1005D300E98FF0A42CCD35F0FCEB8EF0A4FEA9F04E
:1005E300EB8FF0A4CFC5F02ECD39FEE43CFCEAA49A
:1005F3002DCE35F0FDE43CFC2275F008758200EF4A
:100603002FFFEE33FECD33CDCC33CCC58233C58241
:100613009BED9AEC99E58298400CF582EE9BFEEDFA
:100623009AFDEC99FC0FD5F0D6E4CEFBE4CDFAE4C9
:10063300CCF9A88222B800C1B90059BA002DEC8BBD
:10064300F084CFCECDFCE5F0CBF97818EF2FFFEE99
:1006530033FEED33FDEC33FCEB33FB10D703994052
:1006630004EB99FB0FD8E5E4F9FA227818EF2FFF92
:10067300EE33FEED33FDEC33FCC933C910D7059BD4
:10068300E99A4007EC9BFCE99AF90FD8E0E4C9FA30
:10069300E4CCFB2275F010EF2FFFEE33FEED33FDBC
:1006A300CC33CCC833C810D7079BEC9AE899400ADF
:1006B300ED9BFDEC9AFCE899F80FD5F0DAE4CDFB5D
:1006C300E4CCFAE4C8F922C3E49FFFE49EFEE49D70
:1006D300FDE49CFC22EB9FF5F0EA9E42F0E99D428B
:1006E300F0E89C45F0227401FF3395E0FEFDFC0821
:1006F3000808E6CF2FF618E6CE3EF618E6CD3DF60F
:1007030018E6CC3CF622FAE6FB0808E6F925F0F6F3
:1007130018E6CA3AF622D083D082F8E493701274B2
:100723000193700DA3A393F8740193F5828883E476
:10073300737402936860EFA3A3A380DFD083D08296
:10074300F8E4937012740193700DA3A393F87401EA
:1007530093F5828883E473740293B5F0067403936C
:100763006860E9A3A3A3A380D8E5392425F8E605A7
:10077300392278223007027825E475F0011207093F
:100783000205552000EB7F2ED2008018EF540F2472
:1007930090D43440D4FF30040BEF24BFB41A00507C
:1007A300032461FFE53A6002153A053DE53D700219
:1007B300053C30070D7822E475F001120709EF02BA
:1007C300059B02004A7403D2078003E4C207F5398C
:1007D3008B228A238924E4F53AF53CF53DE53A601A
:1007E300077F201207A780F5753BFFC201C200C235
:1007F30002C203C205C206C208120775FF700D309C
:1008030007057F001207B8AF3DAE3C22B4255FC297
:10081300D5C204120775FF24D0B40A00501A75F02C
:100823000A783A30D50508B6FF0106C6A426F62095
:10083300D5047002D20380D924CFB41A00EF500438
:10084300C2E5D204020AA5D20180C6D20080C0D27A
:100853000280BCD2D580BAD20580B47F201207A70C
:100863002002077401B53A0040F112076CFF12072A
:10087300A70207E0D208D206809512076CFB120785
:100883006CFA12076CF94A4B7006799C7A0B7BFF62
:1008930020022EE53A602A7E008E827583001205BF
:1008A3006E60060EEE653B70F0C2D5EBC0E0EAC0A9
:1008B300E0E9C0E0EE120B05D0E0F9D0E0FAD0E0B9
:1008C300FB120555FF60AAEBC0E0EAC0E0E9C0E017
:1008D3001207A7D0E02401F9D0E03400FAD0E0FBFE
:1008E300E53B0460DCD53BD98087D20280A2120AA3
:1008F300E860F7E53B7001041203B3A93B600DE523
:100903003B600914F53B120B8FEF60F3EA30E7020B
:10091300F404C3995077EAF4253B0430E701E40477
:10092300F53B800D120AE860C1EA053B253B120343
:10093300B3EA7838F630E701E4253B04D53B0420DD
:10094300050114120B05E4C0E0120B8F7838E66042
:100953001320E70714F612078F802204F6D0E01461
:10096300C0E07F0012078FE53B6007120786153B47
:10097300800B300503120786D0E00207E0D0E004C5
:1009830080C5120AE860A0E53B041203B37838EA95
:10099300F6E53B2005026001042404120B0574FFF5
:1009A30004C0E0120B8F12078FE53B2005026003A2
:1009B300120786D0E0B53BE87F451207997838E601
:1009C3007F2B30E7047F2DF404C0E01207A7D0E0AB
:1009D30075F00A84C0F0120790D0E0120790020766
:1009E300E0791080027908C206C2088008D2D5795E
:1009F3000A8004790AC2D5E53B047002F53BE4FAA8
:100A0300FDFEFF12076CFC7B0820011312076CFD2F
:100A13007B1030000A12076CFE12076CFF7B20EC80
:100A23003382D592D55013C3E43000069FFFE49E72
:100A3300FEE42001039DFDE49CFCE4CBF8C201EC41
:100A4300700CCFCECDCCE824F8F870F38017C3EF49
:100A530033FFEE33FEED33FDEC33FCEB33FB994018
:100A630002FB0FD8E9EB300105F8D0E0C448B2012E
:100A7300C0E00AEC4D4E4F78207B0070C2EAB53BD4
:100A83000040BCC0E0120B07D0F0D0E0200104C44A
:100A9300C0E0C4B201C0F0120790D0F0D5F0EB0271
:100AA30007E0120719087D5309E458084E4C084A19
:100AB3004209E84F09F04409F04908634309F65530
:100AC30009274609854508F1470BBC5008522D08F4
:100AD300562E08792B085A230877200BA52A0812CB
:100AE3004800000871E53BB4FF03753B0612076C31
:100AF300FC12076CFD12076CFE12076CFF783102C3
:100B030003E2790AA2D5200314300509B9100204BF
:100B130004B9080104A2D52006025001042002688A
:100B23009202B53A005034C0E07F203003197F3081
:100B3300A20272067205500F120B5EC202C206C2F7
:100B430005C2087F30800F300503E9C0E01207A714
:100B5300300503D0E0F9D0E0B53ACC3005177F304B
:100B6300B9100C1207A77F583004077F788003B9A8
:100B730008031207A73002057F2D0207A77F202055
:100B830008F87F2B2006F322920280CF7F00B40760
:100B93000050052431F8E6FF22286E756C6C29009D
:100BA300D20112076C3001F8C201783A30D501083E
:100BB300F60208122D5043495812076C2403B4055A
:100BC300004001E4900BB793120798743A12079808
:100BD300D203753A040209E4C0E0C0F0C083C082C6
:100BE300C0D075D000C000C001C002C003C004C0A3
:100BF30005C006C007755100755000754F00754E4E
:100C030000E5118510F012073F0C2000000C2500B1
:100C1300010C2A00020C2F000300000C3275BB0DDF
:100C2300800D75BB0C800875BB0B800375BB0AAFC9
:100C3300BDAEBEE4FCFDE50B2FF50BE50A3EF50A60
:100C4300E5093DF509E5083CF508E50D150D7002CC
:100C5300150CE50D450C6003020E26750C08750D89
:100C6300007B007A0879007800AF0BAE0AAD09ACBF
:100C7300081206388F518E508D4F8C4E750B0075B0
:100C83000A007509007508007FE47E0C7D007C0076
:100C9300AB51AA50A94FA84E1205AD7BFF7A3F79FD
:100CA3000078001206388F558E548D538C5275413F
:100CB30000754000753F40753E40754533754433BC
:100CC3007543B3754240754100754000753F8075AB
:100CD3003E3F750E00750FC8E5118510F012073FF2
:100CE3000CF700000D8B00010E0300020E0D000334
:100CF30000000E157F607E097D007C00AB51AA5079
:100D0300A94FA84E1205ADE41202F4C004C005C0F9
:100D130006C0077F007EFC7D7F7C46AB49AA48A9BD
:100D230047A84612014EA804A905AA06AB07D00797
:100D3300D006D005D0041202577B007A00797A7866
:100D43004412014EC004C005C006C007AC0EAD0F6F
:100D5300EC1202F9AB41AA40A93FA83E12014EA8EA
:100D630004A905AA06AB07D007D006D005D0041204
:100D730002571203328F598E588D578C56AE58AF87
:100D8300598E128F13020E157FCD7E0C7D007C00D1
:100D9300AB51AA50A94FA84E1205AD7BFF7A3F79FC
:100DA3000078001206387BE87A0379007800120590
:100DB300ADE41202F4C004C005C006C0077F007E84
:100DC300007D487C43AB41AA40A93FA83E12014E97
:100DD300A804A905AA06AB07D007D006D005D004FE
:100DE3001202571203328F598E588D578C56AE58B4
:100DF300AF598E148F15AE54AF558E148F158012C4
:100E0300AE54AF558E168F178008AE54AF558E185B
:100E13008F190511E5117002051085A75A75A700F2
:100E2300855AA7C2EDD007D006D005D004D003D091
:100E330002D001D000D0D0D082D083D0F0D0E03225
:100E4300D290C29290FFC3E0FCA3E0FDA3E0FEA317
:100E5300E0FF8F6B8E6A8D698C68E56B54FFFFE54D
:100E63006A5400FEE5695400FDE5685400FC8F6C8C
:100E730085A76775A7008567A77F327E007D007C05
:100E830000120EF17BFF7A1179C1AF6C7E008E25C3
:100E93008F261207CE7F1E7E007D007C00120EF18E
:100EA300C290D292E5E85406FFEF1207190EBD0275
:100EB3000ECA040ED70600000EE4754900754800FB
:100EC30075474075463F22754900754800754700D0
:100ED30075463F2275490075480075478075463E43
:100EE3002275490075480075478075463F228F5E1D
:100EF3008E5D8D5C8C5BAF5EAE5DAD5CAC5BE41216
:100F030002F47BAB7A2A79CC784312014E12033276
:100F13008F628E618D608C5FAF5EAE5DAD5CAC5BEE
:100F2300E41202F47B007A0079FA784212014E7BD4
:100F3300007A007908784212005D1203328F668EC0
:100F4300658D648C63AF66AE65AD64AC63AB62AA5A
:100F530061A960A85FD31206D84019C3E5629566FC
:100F6300F562E5619565F561E5609564F560E55FBA
:100F73009563F55F785F74FF1206EB7B007A007967
:100F8300007800C31206D850030080E82212000341
:100F9300787FE4F6D8FD758173020FDA02107BE4E3
:100FA30093A3F8E493A34003F68001F208DFF480EF
:100FB30029E493A3F85407240CC8C333C4540F443F
:100FC30020C8834004F456800146F6DFE4800B0119
:100FD30002040810204080901178E47E019360BCE5
:100FE300A3FF543F30E509541FFEE493A360010EB1
:100FF300CF54C025E060A840B8E493A3FAE493A3D8
:10100300F8E493A3C8C582C8CAC583CAF0A3C8C5F8
:1010130082C8CAC583CADFE9DEE780BE75A700754B
:1010230097A5751D00751C00751B00751A007F19A7
:101033007E007D007C00AB1DAA1CA91BA81AC3124D
:1010430006D8502300AF1DAE1CAD1BAC1A7B017A32
:101053000079007800EF2BF51DEE3AF51CED39F51C
:101063001BEC38F51A80C7A2AF9209C2AF7597DEA1
:101073007597ADA20992AF22751F001210D2C2B4A8
:10108300D2A2D299D2AF120E43E511640445107077
:10109300F8751000751100AF1F7E00EF4E7007D278
:1010A30090751F018005C290751F007BFF7A11792F
:1010B300CF8512258513268514278515288516299E
:1010C30085172A85182B85192C1207CE80BB2285FC
:1010D300A77112101F12118312118D121197121181
:1010E300A11211501211BD12116912111D1211001A
:1010F3001211AB1211B91211B28571A722E5C854AE
:1011030004F57353C8FB75CFFF75CE3475CBFF75EC
:10111300CA3443C804E57342C8228588725388AF32
:10112300758DF7E5725440FFE5725410FEEE4FFFE4
:10113300EF4288228F70E570B40A083099FDC29996
:1011430075990D3099FDC299AF708F992275B302CD
:1011530075B28075BB0D75DF0675BC0875B9035391
:10116300E8F943E8C22275A900E5A95480FF7E008F
:10117300EF4E60F522040800000000020C08000096
:1011830075A41075F1FE75D4072275A50575F20FC8
:1011930075D5F52275A60975A72075CC092275A703
:1011A3000075E34075E1012275892043884022756B
:1011B300E60875A880224398102275D180224154F5
:1011C3002B4E414D4553574D2D25640025642C2549
:0811D300642C25642C25640046
:00000001FF
