:020000040000FA
:100000000211F190FFC3E0FCA3E0FDA3E0FEA3E03A
:10001000FF900092120776900092E0FCA3E0FDA30F
:10002000E0FEA3E0FFEF54FFFFEE5400FEED5400AE
:10003000FDEC5400FC900092120776227589204353
:100040008840220212E875A41075F1FE75D4477538
:10005000FE4022020CFE02039EE86480F8E933E8C9
:100060003360110460F0ED33EC337009E8FCE9FD16
:10007000EAFEEBFF220460DED3EB9FEA9EE99DE8F7
:10008000C2E78CF0C2F795F0400CE8CCF8E9CDF966
:10009000EACEFAEBCFFB12036985D0F05804700367
:1000A00020D5B3E80470075002B2D50203A892D558
:1000B000EC0460F7E4CCC0E0C398F8603B941860AF
:1000C00008400DD0E0FB020380E4FBFAC9FC802865
:1000D000E830E406E4C9FBE4CAFCE830E305E4C91F
:1000E000CACBFCE854076010F8C3E913F9EA13FA25
:1000F000EB13FBEC13FCD8F130F52FC3E49CFCEFC1
:100100009BFFEE9AFEED99FDD0E0FBEF4E4D4C705B
:100110001222DB030203A5EC2CFCEF33FFEE33FECF
:10012000ED33FDED30E7EB020380EF2BFFEE3AFEFF
:10013000ED39FDD0E0FB50130BBB00030203A8ED2B
:1001400013FDEE13FEEF13FFEC13FC020380EC4DE6
:100150006011E8497017ED33EC3304600DE4FCFFE7
:10016000FEFD22E933E8330470F802039E120369AE
:1001700058046009E4CC248150062850090203A8E1
:100180002840030203A5C0E0EB4A7044B98006D0C2
:10019000E0FB020394EF4E701CBD8008EBFFEAFE0B
:1001A000E9FD80EBE98DF0A4FEE5F0020237E9CD30
:1001B000F9EAFEEBFFEF89F0A4FCE5F0CE89F0A4AC
:1001C0002EFFE435F0CD89F0A42DFEE435F08067F4
:1001D000EF4E7005BD80D780C3EF8BF0A4ACF0EE7E
:1001E0008BF0A42CFCE435F0F8EF8AF0A42CE5F0B9
:1001F00038FCE433CB8DF0A42CFCE5F03BF8EE8A20
:10020000F0A42CFCE5F038F8E433CF89F0A42CFC02
:10021000E5F038CF3400CE89F0A42FFFE5F03EFEA4
:10022000E433C98DF0A42EFEE5F039CD8AF0A42F79
:10023000FFE5F03EFEE43DFD33D0E0FB50070BBB95
:10024000000F0203A8EC2CFCEF33FFEE33FEED337E
:10025000FD0203800203A8EC5D046005E859047008
:100260000302039E120369580460F6EC4860F2EC46
:100270007004FDFEFF22C860DB2481C85009C398CA
:10028000600250060203A59850CAF582E9294B4A3C
:100290007005AB8202039475F0007C1A7880C3EF7E
:1002A0009BEE9AED99400DC3EF9BFFEE9AFEED9900
:1002B000FDE842F0DC23ACF0D0E0FFD0E0FED0E07F
:1002C000FDAB8220E7101BEB60BAEC2CFCEF33FF98
:1002D000EE33FEED33FD020380E803F830E705C09E
:1002E000F075F000EF2FFFEE33FEED33FD40B83038
:1002F000E7C280AA75F020800E75F010800575F0B9
:10030000087D007E007F003392D530D5031207228E
:10031000EC334010EF33FFEE33FEED33FDEC33FCF6
:10032000D5F0ED22E5F0247EA2D513CC92E7CDCE18
:10033000FF22EDD2E7CD33EC3392D524814006E4A1
:10034000FFFEFDFC22FCE4CFCECDCC24E0501174A6
:10035000FF80EDC3CC13CCCD13CDCE13CECF13CFB6
:100360000470F030D5DE020722E9D2E7C933E83362
:10037000F892D5EDD2E7CD33EC33FC5002B2D52262
:10038000EC30E7100FBF000C0EBE00080DBD0004DE
:100390000BEB6014A2D5EB13FCED92E7FD2274FF8A
:1003A000FCFDFEFF22E480F8A2D574FF13FC7D80E3
:1003B000E480EFF920E73624F950037907E4F424C8
:1003C00002FBE582158270021583DBF6E024FB5008
:1003D0001BE96014E4F0E582158270021583E004E5
:1003E000F0B40A08E4F0D9EE7401F00A22C2D52272
:1003F000ED33EC3392D5FA602AB4FF33EDC2E77BDC
:10040000FF60067A047915E4227A04791E20D50467
:100410007A047919224E614E002B494E46002D492F
:100420004E4600E47A08F0A3DAFC7B00740722C091
:1004300083C082ECC0E0EDC0E0EEC0E0EFC0E0EAD7
:1004400075F010A4CAABF075F04DA42BFBE435F0A9
:10045000FCEA2410FAEB34C5FBEC34D9FCEDC2E71E
:10046000FF75F056A4F42411C5F0F434C58FF0A440
:100470002AE5F03BE43CF020E714120525D0E0FF2C
:10048000D0E0FED0E0FDD0E0FC1202578014F4046E
:10049000120525D0E0FFD0E0FED0E0FDD0E0FC1258
:1004A000014ED082D083E0FAEDD2E7CD33EC332495
:1004B00082FBE4C3CF33CFCE33CECD33CD33DBF3AA
:1004C0007B0775F00A846004F0A31B0AE5F0F0A333
:1004D0008FF0740AA4FFACF08EF0740AA42CFEAC6A
:1004E000F050010C8DF0740AA42CFDE435F0F0A35B
:1004F000DBDE7407223F8000004120000042C8007C
:1005000000447A0000461C400047C3500049742450
:10051000004B1896804CBEBC205A0E1BCA6753C2B3
:100520001C749DC5AEFB60065407601C2323120596
:1005300053EB5438600912053F12054E12014EEC80
:10054000F8EDF9EEFAEFCB22EB12054E80F15438BC
:1005500003241C9004F5FE93FC0EEE93FD0EEE9327
:100560000ECE93FF22BB010689828A83E0225002CD
:10057000E722BBFE02E32289828A83E49322BB0145
:100580000CE58229F582E5833AF583E0225006E9FD
:100590002582F8E622BBFE06E92582F8E222E58202
:1005A00029F582E5833AF583E49322BB010689822B
:1005B0008A83F0225002F722BBFE01F322EF8DF076
:1005C000A4A8F0CF8CF0A428CE8DF0A42EFE22C2D9
:1005D000D5EC30E709B2D5E4C39DFDE49CFCEE30D8
:1005E000E715B2D5E4C39FFFE49EFE120826C3E4DC
:1005F0009DFDE49CFC800312082630D507C3E49FD0
:10060000FFE49EFE22E88FF0A4CC8BF0A42CFCE942
:100610008EF0A42CFC8AF0EDA42CFCEA8EF0A4CD84
:10062000A8F08BF0A42DCC3825F0FDE98FF0A42C98
:10063000CD35F0FCEB8EF0A4FEA9F0EB8FF0A4CF4B
:10064000C5F02ECD39FEE43CFCEAA42DCE35F0FDFC
:10065000E43CFC2275F008758200EF2FFFEE33FEBC
:10066000CD33CDCC33CCC58233C5829BED9AEC998A
:10067000E58298400CF582EE9BFEED9AFDEC99FC2C
:100680000FD5F0D6E4CEFBE4CDFAE4CCF9A8822273
:10069000B800C1B90059BA002DEC8BF084CFCECD93
:1006A000FCE5F0CBF97818EF2FFFEE33FEED33FDCC
:1006B000EC33FCEB33FB10D703994004EB99FB0FB1
:1006C000D8E5E4F9FA227818EF2FFFEE33FEED3388
:1006D000FDEC33FCC933C910D7059BE99A4007EC00
:1006E0009BFCE99AF90FD8E0E4C9FAE4CCFB227547
:1006F000F010EF2FFFEE33FEED33FDCC33CCC833DB
:10070000C810D7079BEC9AE899400AED9BFDEC9A3C
:10071000FCE899F80FD5F0DAE4CDFBE4CCFAE4C8B4
:10072000F922C3E49FFFE49EFEE49DFDE49CFC22CD
:10073000EB9FF5F0EA9E42F0E99D42F0E89C45F01F
:10074000227401FF3395E0FEFDFCA3A3A3E0CF2FAD
:10075000F0E582158270021583E0CE3EF0E5821549
:100760008270021583E0CD3DF0E58215827002159E
:1007700083E0CC3CF022ECF0A3EDF0A3EEF0A3EF8D
:10078000F022A8828583F0D083D0821207991207C5
:1007900099120799120799E473E493A3C583C5F0EE
:1007A000C583C8C582C8F0A3C583C5F0C583C8C5C5
:1007B00082C822F8E0FBA3A3E0F925F0F0E582155A
:1007C0008270021583E0FA38F022EBF0A3EAF0A37E
:1007D000E9F022D083D082F8E49370127401937010
:1007E0000DA3A393F8740193F5828883E4737402D4
:1007F000936860EFA3A3A380DFD083D082F8E49353
:100800007012740193700DA3A393F8740193F58291
:100810008883E473740293B5F0067403936860E907
:10082000A3A3A3A380D8BC000BBE0029EF8DF08446
:10083000FFADF022E4CCF875F008EF2FFFEE33FEA9
:10084000EC33FCEE9DEC984005FCEE9DFE0FD5F0E0
:10085000E9E4CEFD22EDF8F5F0EE8420D21CFEADE9
:10086000F075F008EF2FFFED33FD4007985006D5E7
:10087000F0F222C398FD0FD5F0EA22E50D2433F5FE
:1008800082E43400F583E0050D229000303010033F
:10089000900033E475F0011207B30205652009E901
:1008A0007F2ED2098018EF540F2490D43440D4FF07
:1008B000300D0BEF24BFB41A0050032461FFE50E86
:1008C0006002150E0511E5117002051030100E9032
:1008D0000030E475F0011207B3EF0205AB0213FE1E
:1008E0007403D2108003E4C210F50D90003012079B
:1008F000CAE4F50EF510F511E50E60077F20120829
:10090000BE80F5750FFFC20AC209C20BC20CC20E2F
:10091000C20FC21112088AFF700D3010057F00123D
:1009200008CFAF11AE1022B4255FC2D5C20D120898
:100930008AFF24D0B40A00501A75F00A780E30D518
:100940000508B6FF0106C6A426F620D5047002D21B
:100950000C80D924CFB41A00EF5004C2E5D20D02A6
:100960000BC1D20A80C6D20980C0D20B80BCD2D5BE
:1009700080BAD20E80B47F201208BE200B0774010B
:10098000B50E0040F112087BFF1208BE0208F8D233
:1009900011D20F809512087BFB12087BFA12087B9C
:1009A000F94A4B700679BF7A0C7BFF200B2EE50EBF
:1009B000602A7E008E8275830012057E60060EEE30
:1009C000650F70F0C2D5EBC0E0EAC0E0E9C0E0EE30
:1009D000120C22D0E0F9D0E0FAD0E0FB120565FF5E
:1009E00060AAEBC0E0EAC0E0E9C0E01208BED0E0D7
:1009F0002401F9D0E03400FAD0E0FBE50F0460DC1C
:100A0000D50FD98087D20B80A2120C0460F7E50FB6
:100A10007001041203B3A90F600DE50F600914F50E
:100A20000F120CACEF60F3EA30E702F404C3995004
:100A300079EAF4250F0430E701E404F50F800D1284
:100A40000C0460C1EA050F250F1203B3EA90005FA2
:100A5000F030E701E4250F04D50F04200E01141235
:100A60000C22E4C0E0120CAC90005FE0601320E7C1
:100A70000714F01208A6802204F0D0E014C0E07F32
:100A8000001208A6E50F600712089D150F800B30B5
:100A90000E0312089DD0E00208F8D0E00480C412D2
:100AA0000C04609EE50F041203B390005FEAF0E5CA
:100AB0000F200E026001042404120C2274FF04C0F3
:100AC000E0120CAC1208A6E50F200E02600312081B
:100AD0009DD0E0B50FE87F451208B090005FE07F41
:100AE0002B30E7047F2DF404C0E01208BED0E0757F
:100AF000F00A84C0F01208A7D0E01208A70208F894
:100B0000791080027908C20FC2118008D2D5790A03
:100B10008004790AC2D5E50F047002F50FE4FAFDEE
:100B2000FEFF12087BFC7B08200A1312087BFD7B6A
:100B30001030090A12087BFE12087BFF7B20EC3381
:100B400082D592D55013C3E43009069FFFE49EFE80
:100B5000E4200A039DFDE49CFCE4CBF8C20AEC709F
:100B60000CCFCECDCCE824F8F870F38017C3EF3368
:100B7000FFEE33FEED33FDEC33FCEB33FB9940022B
:100B8000FB0FD8E9EB300A05F8D0E0C448B20AC040
:100B9000E00AEC4D4E4F78207B0070C2EAB50F00A2
:100BA00040BCC0E0120C24D0F0D0E0200A04C4C045
:100BB000E0C4B20AC0F01208A7D0F0D5F0EB0208EA
:100BC000F81207D30995530B005809664C09624285
:100BD0000B044F0B0C440B0C49097B430B12550AB9
:100BE0003F460A9F450A09470CDF50096A2D096EE6
:100BF0002E09912B097223098F200CC82A092A4833
:100C000000000989E50FB4FF03750F0612087BFC8D
:100C100012087BFD12087BFE12087BFF9000580231
:100C200003F0790AA2D5200C14300E09B910020481
:100C300004B9080104A2D5200F02500104200B685A
:100C4000920BB50E005034C0E07F20300C197F307D
:100C5000A20B720F720E500F120C7BC20BC20FC28E
:100C60000EC2117F30800F300E03E9C0E01208BEC3
:100C7000300E03D0E0F9D0E0B50ECC300E177F3047
:100C8000B9100C1208BE7F58300D077F788003B969
:100C900008031208BE300B057F2D0208BE7F2020FE
:100CA00011F87F2B200FF322920B80CF7F00B40727
:100CB00000500B2458F582E43400F583E0FF22282D
:100CC0006E756C6C2900D20A12087B300AF8C20AD1
:100CD000780E30D50108F602092A2D5043495812E2
:100CE000087B2403B405004001E4900CDA93120859
:100CF000AF743A1208AFD20C750E04020B00C0E0BC
:100D0000C0F0C083C082C0D075D000C000C001C098
:100D100002C003C004C005C006C0079000721207DD
:100D20008200000000900068E0FEA3E0FFEF8EF07C
:100D30001207F90D4700000D4C00010D5100020D86
:100D400056000300000D5975BB0D800D75BB0C805E
:100D50000875BB0B800375BB0A900060E0F8A3E048
:100D6000F9A3E0FAA3E0FBAFBDAEBEE4FCFDEB2FC0
:100D7000FFEA3EFEE93DFDE83CFC9000601207768C
:100D8000900065E024FFF0900064E034FFF09000F4
:100D900064E0FEA3E0FFEF4E6003020FCC9000641E
:100DA0007408F0A3E4F07B007A08790078009000E2
:100DB00060E0FCA3E0FDA3E0FEA3E0FF120690903C
:100DC0000072120776900060120782000000007F18
:100DD000E47E0C7D007C00900072E0F8A3E0F9A3B3
:100DE000E0FAA3E0FB1206057BFF7A3F790078006A
:100DF00012069090007612077690007EE4F0A374BD
:100E00001EF0900080E4F0A37438F090007EE4F0CF
:100E1000A3740AF0900066E4F0A374C8F090006830
:100E2000E0FEA3E0FFEF8EF01207F90E3F00000E88
:100E3000FA00010F9000020FA8000300000FBE7F10
:100E4000607E097D007C00900072E0F8A3E0F9A3C9
:100E5000E0FAA3E0FB120605E41202F4C004C005A8
:100E6000C006C0077F007EFC7D7F7C4690008EE040
:100E7000F8A3E0F9A3E0FAA3E0FB12014EA804A94D
:100E800005AA06AB07D007D006D005D0041202573A
:100E90007B007A00797A784412014EC004C005C004
:100EA00006C00790007EE0FCA3E0FD900066E0FE37
:100EB000A3E0FF1205BD7C007D0A1205CFAC06AD94
:100EC00007EC1202F9A804A905AA06AB07D007D0BF
:100ED00006D005D00412025712033290007A12078E
:100EE0007690007AE0FCA3E0FDA3E0FEA3E0FF9093
:100EF000006AEEF0A3EFF0020FBE7FCD7E0C7D0006
:100F00007C00900072E0F8A3E0F9A3E0FAA3E0FB14
:100F10001206057BFF7A3F790078001206907BE885
:100F20007A0379007800120605C004C005C006C027
:100F30000790007EE0FEA3E0FF7C007DC81205BDA7
:100F40007C007D0A1205CFAB07AA06EA3395E0F9CB
:100F5000F8D007D006D005D00412069090007A127F
:100F6000077690007AE0FCA3E0FDA3E0FEA3E0FF9B
:100F700090006CEEF0A3EFF0900076E0FCA3E0FDB3
:100F8000A3E0FEA3E0FF90006CEEF0A3EFF0802E54
:100F9000900076E0FCA3E0FDA3E0FEA3E0FF90005C
:100FA0006EEEF0A3EFF08016900076E0FCA3E0FD7B
:100FB000A3E0FEA3E0FF900070EEF0A3EFF090003E
:100FC00069E004F07006900068E004F0C2EDD0071C
:100FD000D006D005D004D003D002D001D000D0D0AC
:100FE000D082D083D0F0D0E0329000821207769089
:100FF0000082E0FCA3E0FDA3E0FEA3E0FFE4120218
:10100000F47BAB7A2A79CC784312014E12033290EA
:101010000086120776900082E0FCA3E0FDA3E0FECC
:10102000A3E0FFE41202F47B007A0079FA7842121E
:10103000014E7B007A007908784212005D1203327B
:1010400090008A12077690008AE0FCA3E0FDA3E0FE
:10105000FEA3E0FF900086E0F8A3E0F9A3E0FAA386
:10106000E0FBD3120730402F900086E0FCA3E0FDA8
:10107000A3E0FEA3E0FF90008AE0F8A3E0F9A3E07C
:10108000FAA3E0FBC3EF9BFFEE9AFEED99FDEC980F
:10109000FC90008612077690008674FF1207437B4F
:1010A000007A0079007800C312073050030080E70F
:1010B00022D290C29290FFC3E0FCA3E0FDA3E0FE29
:1010C000A3E0FF900096120776900096E0FCA3E064
:1010D000FDA3E0FEA3E0FFEF54FFFFEE5400FEEDA2
:1010E0005400FDEC5400FC90009AEFF07F327E003B
:1010F0007D007C00120FE97BFF7A14794A90009AF8
:10110000E0FF7E00900033EEF0A3EFF01208E67FE0
:101110001E7E007D007C00120FE9C290D292E5E8AD
:101120005406FFEF1207D3113402113F04114A068F
:101130000000115590008E1207823F40000022905F
:10114000008E1207823F0000002290008E1207825C
:101150003E8000002290008E1207823F8000002215
:101160009000A2E4F0121331C2B4D2A2D299D2AF4D
:101170001210B1900068E0FEA3E0FFEF64044E702F
:10118000F2900068E4F0A3E4F09000A2E0FF7E009B
:10119000EF4E700AD2909000A27401F08007C290C6
:1011A0009000A2E4F07BFF7A14796290006AE0FE7E
:1011B000A3E0FF900033EEF0A3EFF090006CE0FEB0
:1011C000A3E0FF900035EEF0A3EFF090006EE0FE9C
:1011D000A3E0FF900037EEF0A3EFF0900070E0FE88
:1011E000A3E0FF900039EEF0A3EFF01208E6808351
:1011F00022120003787FE4F6D8FD75812202123BAB
:10120000021160E493A3F8E493A34003F68001F293
:1012100008DFF48029E493A3F85407240CC8C333EF
:10122000C4540F4420C8834004F456800146F6DFBE
:10123000E4800B010204081020408090140CE47E2E
:10124000019360BCA3FF543F30E509541FFEE493B3
:10125000A360010ECF54C025E060A840B8E493A37A
:10126000FAE493A3F8E493A3C8C582C8CAC583CAA5
:10127000F0A3C8C582C8CAC583CADFE9DEE780BE5D
:1012800075A7007597A590009B12078200000000CB
:101290007F197E007D007C0090009BE0F8A3E0F9C0
:1012A000A3E0FAA3E0FBC3120730502B0090009B91
:1012B000E0FCA3E0FDA3E0FEA3E0FF7B017A007960
:1012C000007800EF2BFFEE3AFEED39FDEC38FC9094
:1012D000009B12077680B9A2AF9212C2AF7597DE5B
:1012E0007597ADA21292AF22C0E0C0F0C083C08259
:1012F000C0D075D000C000C001C002C003C004C08F
:1013000005C006C0077BFF7A14796E1208E6C29208
:1013100075A70053E6FDD007D006D005D004D00352
:10132000D002D001D000D0D0D082D083D0F0D0E095
:10133000329000A3E5A7F012128012004612141991
:1013400012142312144612142D1213D61214421220
:1013500013EF12136912138E12003C12143E121472
:10136000379000A3E0FF8FA7229000A4E588F053F8
:1013700088AF758DF79000A4E0FFEF5440FF900018
:10138000A4E0FEEE5410FEEE4FFFEF428822E5C8C7
:101390005404FF9000A5EFF053C8FB75CFFF75CE46
:1013A0003475CBFF75CA3443C8049000A5E0FFEF45
:1013B00042C8229000A1EFF09000A1E0FFEFB40A34
:1013C000083099FDC29975990D3099FDC299900028
:1013D000A1E0FF8F992275B30275B28075BB0D75C0
:1013E000DF0675BC0875B90353E8F943E8C22275F6
:1013F000A900E5A95480FF7E00EF4E60F522900021
:101400009FEFF090009FE0FF1213B32244006000B2
:1014100000000042006408000075A50575F20F7514
:10142000D5F52275A60975A72075CC092275A700E8
:1014300075E34075E1012275E60A75A8802243989C
:10144000102275D18022759C012241542B4E414DB2
:101450004553574D2D25640041542B534C45455061
:10146000320025642C25642C25642C2564000A5048
:101470006F7274204D6174636820496E7465727276
:0A14800075707420666972656400DF
:00000001FF
