:020000040000FA
:1000000002107085A774121170120046121310129C
:10001000131A12134312132412129012133F1212C6
:10002000D81212E912127612125912005612121038
:1000300012132E12003D1213388574A72243981014
:1000400022223202007F75A41075F1FE75D441752D
:10005000FE4022020C7AE5915404F5775391FB752A
:10006000A71075FE6075A7004391037595D8759428
:10007000F07593D87592F0439104E5774291228010
:0A00800005C29275A70053E6FD3299
:10008B00020042020336E86480F8E933E83360117A
:10009B000460F0ED33EC337009E8FCE9FDEAFEEBAC
:1000AB00FF220460DED3EB9FEA9EE99DE8C2E78C5A
:1000BB00F0C2F795F0400CE8CCF8E9CDF9EACEFAAE
:1000CB00EBCFFB12030185D0F05804700320D5B39E
:1000DB00E80470075002B2D502034092D5EC0460DD
:1000EB00F7E4CCC0E0C398F8603B94186008400D6F
:1000FB00D0E0FB020318E4FBFAC9FC8028E830E4EB
:10010B0006E4C9FBE4CAFCE830E305E4C9CACBFC4E
:10011B00E854076010F8C3E913F9EA13FAEB13FB81
:10012B00EC13FCD8F130F52FC3E49CFCEF9BFFEEF6
:10013B009AFEED99FDD0E0FBEF4E4D4C701222DB99
:10014B000302033DEC2CFCEF33FFEE33FEED33FDEE
:10015B00ED30E7EB020318EF2BFFEE3AFEED39FD26
:10016B00D0E0FB50130BBB0003020340ED13FDEE7D
:10017B0013FEEF13FFEC13FC020318EC4D6011E8B8
:10018B00497017ED33EC3304600DE4FCFFFEFD22E8
:10019B00E933E8330470F8020336120301580460A4
:1001AB0009E4CC248150062850090203402840035F
:1001BB0002033DC0E0EB4A7044B98006D0E0FB027D
:1001CB00032CEF4E701CBD8008EBFFEAFEE9FD80AF
:1001DB00EBE98DF0A4FEE5F002026FE9CDF9EAFE42
:1001EB00EBFFEF89F0A4FCE5F0CE89F0A42EFFE441
:1001FB0035F0CD89F0A42DFEE435F08067EF4E701D
:10020B0005BD80D780C3EF8BF0A4ACF0EE8BF0A4D0
:10021B002CFCE435F0F8EF8AF0A42CE5F038FCE484
:10022B0033CB8DF0A42CFCE5F03BF8EE8AF0A42C3C
:10023B00FCE5F038F8E433CF89F0A42CFCE5F0387A
:10024B00CF3400CE89F0A42FFFE5F03EFEE433C996
:10025B008DF0A42EFEE5F039CD8AF0A42FFFE5F04A
:10026B003EFEE43DFD33D0E0FB50070BBB000F021D
:10027B000340EC2CFCEF33FFEE33FEED33FD0203BA
:10028B001875F020800E75F010800575F0087D0054
:10029B007E007F003392D530D503120769EC3340D3
:1002AB0010EF33FFEE33FEED33FDEC33FCD5F0ED09
:1002BB0022E5F0247EA2D513CC92E7CDCEFF22ED22
:1002CB00D2E7CD33EC3392D524814006E4FFFEFD1B
:1002DB00FC22FCE4CFCECDCC24E0501174FF80ED9A
:1002EB00C3CC13CCCD13CDCE13CECF13CF0470F024
:1002FB0030D5DE020769E9D2E7C933E833F892D586
:10030B00EDD2E7CD33EC33FC5002B2D522EC30E723
:10031B00100FBF000C0EBE00080DBD00040BEB60F0
:10032B0014A2D5EB13FCED92E7FD2274FFFCFDFE4E
:10033B00FF22E480F8A2D574FF13FC7D80E480EFEC
:10034B00F920E72824F950037907E4F42402FB1879
:10035B00DBFDE624FB5014E9600DE4F618E604F629
:10036B00B40A08E4F6D9F57401F60A22C2D522EDD7
:10037B0033EC3392D5FA602AB4FF33EDC2E77BFF3F
:10038B0060067A03799FE4227A0379A820D5047A50
:10039B000379A3224E614E002B494E46002D494E48
:1003AB004600E47A08F608DAFC7B00740722E8C002
:1003BB00E0ECC0E0EDC0E0EEC0E0EFC0E0EA75F0CD
:1003CB0010A4CAABF075F04DA42BFBE435F0FCEA9E
:1003DB002410FAEB34C5FBEC34D9FCEDC2E7FF7506
:1003EB00F056A4F42411C5F0F434C58FF0A42AE51B
:1003FB00F03BE43CF620E71412054DD0E0FFD0E0D3
:10040B00FED0E0FDD0E0FC1204808014F404120551
:10041B004DD0E0FFD0E0FED0E0FDD0E0FC12018635
:10042B00D0E0F8E6FAEDD2E7CD33EC332482FBE4EF
:10043B00C3CF33CFCE33CECD33CD33DBF37B077589
:10044B00F00A846004F6081B0AE5F0F6088FF074D6
:10045B000AA4FFACF08EF0740AA42CFEACF0500191
:10046B000C8DF0740AA42CFDE435F0F608DBDE7479
:10047B000722020340EC5D046005E8590470030297
:10048B000336120301580460F6EC4860F2EC70047A
:10049B00FDFEFF22C860DB2481C85009C3986002AF
:1004AB00500602033D9850CAF582E9294B4A700564
:1004BB00AB8202032C75F0007C1A7880C3EF9BEEA5
:1004CB009AED99400DC3EF9BFFEE9AFEED99FDE877
:1004DB0042F0DC23ACF0D0E0FFD0E0FED0E0FDAB8F
:1004EB008220E7101BEB60BAEC2CFCEF33FFEE33F2
:1004FB00FEED33FD020318E803F830E705C0F07595
:10050B00F000EF2FFFEE33FEED33FD40B830E7C2C6
:10051B0080AA3F8000004120000042C80000447ABE
:10052B000000461C400047C35000497424004B1880
:10053B0096804CBEBC205A0E1BCA6753C21C749DBE
:10054B00C5AEFB60065407601C232312057BEB54DE
:10055B00386009120567120576120186ECF8EDF981
:10056B00EEFAEFCB22EB12057680F1543803241C04
:10057B0090051DFE93FC0EEE93FD0EEE930ECE93A7
:10058B00FF22BB010689828A83E0225002E722BB4D
:10059B00FE02E32289828A83E49322BB010CE5826B
:1005AB0029F582E5833AF583E0225006E92582F8A6
:1005BB00E622BBFE06E92582F8E222E58229F582D6
:1005CB00E5833AF583E49322BB010689828A83F0A3
:1005DB00225002F722BBFE01F322EF8DF0A4A8F00C
:1005EB00CF8CF0A428CE8DF0A42EFE22BC000BBE27
:1005FB000029EF8DF084FFADF022E4CCF875F00804
:10060B00EF2FFFEE33FEEC33FCEE9DEC984005FC38
:10061B00EE9DFE0FD5F0E9E4CEFD22EDF8F5F0EE00
:10062B008420D21CFEADF075F008EF2FFFED33FDEB
:10063B004007985006D5F0F222C398FD0FD5F0EA8B
:10064B0022E88FF0A4CC8BF0A42CFCE98EF0A42C28
:10065B00FC8AF0EDA42CFCEA8EF0A4CDA8F08BF074
:10066B00A42DCC3825F0FDE98FF0A42CCD35F0FC72
:10067B00EB8EF0A4FEA9F0EB8FF0A4CFC5F02ECD3E
:10068B0039FEE43CFCEAA42DCE35F0FDE43CFC2223
:10069B0075F008758200EF2FFFEE33FECD33CDCC16
:1006AB0033CCC58233C5829BED9AEC99E582984099
:1006BB000CF582EE9BFEED9AFDEC99FC0FD5F0D676
:1006CB00E4CEFBE4CDFAE4CCF9A88222B800C1B9A0
:1006DB000059BA002DEC8BF084CFCECDFCE5F0CBDE
:1006EB00F97818EF2FFFEE33FEED33FDEC33FCEB17
:1006FB0033FB10D703994004EB99FB0FD8E5E4F9D2
:10070B00FA227818EF2FFFEE33FEED33FDEC33FCBE
:10071B00C933C910D7059BE99A4007EC9BFCE99AB2
:10072B00F90FD8E0E4C9FAE4CCFB2275F010EF2FF7
:10073B00FFEE33FEED33FDCC33CCC833C810D707F7
:10074B009BEC9AE899400AED9BFDEC9AFCE899F832
:10075B000FD5F0DAE4CDFBE4CCFAE4C8F922C3E41C
:10076B009FFFE49EFEE49DFDE49CFC22EB9FF5F0D5
:10077B00EA9E42F0E99D42F0E89C45F0227401FFAD
:10078B003395E0FEFDFC080808E6CF2FF618E6CE01
:10079B003EF618E6CD3DF618E6CC3CF622FAE6FB23
:1007AB000808E6F925F0F618E6CA3AF622D083D007
:1007BB0082F8E4937012740193700DA3A393F874F1
:1007CB000193F5828883E4737402936860EFA3A3AB
:1007DB00A380DFD083D082F8E493701274019370FE
:1007EB000DA3A393F8740193F5828883E4737402C9
:1007FB0093B5F0067403936860E9A3A3A3A380D811
:10080B00E5392425F8E605392278223007027825C8
:10081B00E475F0011207A802058D2000EB7F2ED2A4
:10082B00008018EF540F2490D43440D4FF30040BC5
:10083B00EF24BFB41A0050032461FFE53A600215A0
:10084B003A053DE53D7002053C30070D7822E47515
:10085B00F0011207A8EF0205D30212C27403D207EC
:10086B008003E4C207F5398B228A238924E4F53A05
:10087B00F53CF53DE53A60077F2012084680F5759B
:10088B003BFFC201C200C202C203C205C206C208BC
:10089B00120814FF700D3007057F00120857AF3D8B
:1008AB00AE3C22B4255FC2D5C204120814FF24D07B
:1008BB00B40A00501A75F00A783A30D50508B6FF1D
:1008CB000106C6A426F620D5047002D20380D924D3
:1008DB00CFB41A00EF5004C2E5D204020B44D2018C
:1008EB0080C6D20080C0D20280BCD2D580BAD205DD
:1008FB0080B47F201208462002077401B53A0040ED
:10090B00F112080BFF12084602087FD208D20680AC
:10091B009512080BFB12080BFA12080BF94A4B70D5
:10092B0006793B7A0C7BFF20022EE53A602A7E008B
:10093B008E827583001205A660060EEE653B70F085
:10094B00C2D5EBC0E0EAC0E0E9C0E0EE120BA4D0E8
:10095B00E0F9D0E0FAD0E0FB12058DFF60AAEBC006
:10096B00E0EAC0E0E9C0E0120846D0E02401F9D08B
:10097B00E03400FAD0E0FBE53B0460DCD53BD980EA
:10098B0087D20280A2120B8760F7E53B700104123D
:10099B00034BA93B600DE53B600914F53B120C2E94
:1009AB00EF60F3EA30E702F404C3995077EAF425D9
:1009BB003B0430E701E404F53B800D120B8760C16B
:1009CB00EA053B253B12034BEA7838F630E701E4A6
:1009DB00253B04D53B0420050114120BA4E4C0E015
:1009EB00120C2E7838E6601320E70714F612082E47
:1009FB00802204F6D0E014C0E07F0012082EE53B05
:100A0B006007120825153B800B300503120825D013
:100A1B00E002087FD0E00480C5120B8760A0E53BA5
:100A2B000412034B7838EAF6E53B2005026001041B
:100A3B002404120BA474FF04C0E0120C2E12082E17
:100A4B00E53B2005026003120825D0E0B53BE87FAB
:100A5B00451208387838E67F2B30E7047F2DF404F5
:100A6B00C0E0120846D0E075F00A84C0F012082FDF
:100A7B00D0E012082F02087F791080027908C20695
:100A8B00C2088008D2D5790A8004790AC2D5E53B21
:100A9B00047002F53BE4FAFDFEFF12080BFC7B0829
:100AAB0020011312080BFD7B1030000A12080BFEFD
:100ABB0012080BFF7B20EC3382D592D55013C3E485
:100ACB003000069FFFE49EFEE42001039DFDE49CA5
:100ADB00FCE4CBF8C201EC700CCFCECDCCE824F803
:100AEB00F870F38017C3EF33FFEE33FEED33FDECFD
:100AFB0033FCEB33FB994002FB0FD8E9EB300105DC
:100B0B00F8D0E0C448B201C0E00AEC4D4E4F78205B
:100B1B007B0070C2EAB53B0040BCC0E0120BA6D014
:100B2B00F0D0E0200104C4C0E0C4B201C0F0120850
:100B3B002FD0F0D5F0EB02087F1207B8091C530A2F
:100B4B00835808ED4C08E9420A874F0A8F440A8FF5
:100B5B00490902430A955509C6460A244509904797
:100B6B000C5B5008F12D08F52E09182B08F92309F9
:100B7B0016200C442A08B14800000910E53BB4FFCD
:100B8B0003753B0612080BFC12080BFD12080BFE3B
:100B9B0012080BFF783102037A790AA2D5200314CD
:100BAB00300509B910020404B9080104A2D52006C6
:100BBB00025001042002689202B53A005034C0E0A2
:100BCB007F203003197F30A20272067205500F127C
:100BDB000BFDC202C206C205C2087F30800F300572
:100BEB0003E9C0E0120846300503D0E0F9D0E0B5C8
:100BFB003ACC3005177F30B9100C1208467F5830AD
:100C0B0004077F788003B908031208463002057F7A
:100C1B002D0208467F202008F87F2B2006F3229216
:100C2B000280CF7F00B4070050052431F8E6FF2285
:100C3B00286E756C6C2900D20112080B3001F8C2BA
:100C4B0001783A30D50108F60208B12D50434958C6
:100C5B0012080B2403B405004001E4900C569312C8
:100C6B000837743A120837D203753A04020A83C064
:100C7B00E0C0F0C083C082C0D075D000C000C001FE
:100C8B00C002C003C004C005C006C007754D007587
:100C9B004C00754B00754A00E50F850EF01207DE10
:100CAB000CBF00000CC400010CC900020CCE0003E9
:100CBB0000000CD175BB0D800D75BB0C800875BB8E
:100CCB000B800375BB0AAFBDAEBEE4FCFDE50B2F7D
:100CDB00F50BE50A3EF50AE5093DF509E5083CF596
:100CEB0008E50D150D7002150CE50D450C600302A2
:100CFB000EEF750C08750D007B007A0879007800F3
:100D0B00AF0BAE0AAD09AC081206D78F4D8E4C8DCA
:100D1B004B8C4A750B00750A007509007508007F2E
:100D2B00E47E0C7D007C00AB4DAA4CA94BA84A126B
:100D3B00064C7BFF7A3F790078001206D78F518ED5
:100D4B00508D4F8C4EE50F850EF01207DE0D6C00AB
:100D5B00000DD800010E1E00020E73000300000EE2
:100D6B00E7AF737E007C3F7DFF1205E57C007D6461
:100D7B001205F7E4FCFDC004C005C006C0077F6088
:100D8B007E097D007C00AB4DAA4CA94BA84A1206EC
:100D9B004CD003D002D001D0001206D77BE87A03E7
:100DAB007900780012064C7BC87A00790078001223
:100DBB0006D78F558E548D538C52AF55AE54AD53C1
:100DCB00AC528F138E128D118C10020EE7AF737E07
:100DDB00007C3F7DFF1205E57C007D641205F7E486
:100DEB00FCFDC004C005C006C0077F607E097D0006
:100DFB007C00AB4DAA4CA94BA84A12064CD003D091
:100E0B0002D001D0001206D78F178E168D158C14B9
:100E1B00020EE7AF51AE50AD4FAC4E8F1B8E1A8DFD
:100E2B00198C18AF737E007C3F7DFF1205E57C00AB
:100E3B007D641205F7E4FCFDC004C005C006C007C5
:100E4B007F607E097D007C00AB4DAA4CA94BA84A64
:100E5B0012064CD003D002D001D0001206D78F1B44
:100E6B008E1A8D198C188074AF51AE50AD4FAC4E9D
:100E7B008F1F8E1E8D1D8C1CAF737E007C3F7DFFE4
:100E8B001205E57C007D641205F7E4FCFDC004C08F
:100E9B0005C006C0077F607E097D007C00AB4DAAB4
:100EAB004CA94BA84A12064CD003D002D001D0005B
:100EBB001206D77B787A007900780012064C7B0AF1
:100ECB007A00790078001206D77BE87A03790078EC
:100EDB000012064C8F1F8E1E8D1D8C1C050FE50FEF
:100EEB007002050EC2EDD007D006D005D004D0039A
:100EFB00D002D001D000D0D0D082D083D0F0D0E0BF
:100F0B0032C2091200031212F8C2B4D2A2D299D281
:100F1B00AF1210FF1212A98F72AF727E00EF4E60EC
:100F2B002D7B007A00797212086DE5721207B80FEB
:100F3B0044310F6C3200000F531211CC75A3FF75A7
:100F4B00A2FED209801B8019C209801580133009BB
:100F5B0010121239C2927F327E007D007C00120F7C
:100F6B00D1E50F6404450E70F8E50F6404450E706F
:100F7B00A3B290750E00750F007BFF7A13795FAFEC
:100F8B0013AE12AD11AC108F288E278D268C25AF8A
:100F9B0017AE16AD15AC148F2C8E2B8D2A8C29AF5A
:100FAB001BAE1AAD19AC188F308E2F8D2E8C2DAF2A
:100FBB001FAE1EAD1DAC1C8F348E338D328C311297
:100FCB00086D020F1F228F418E408D3F8C3EAF412B
:100FDB00AE40AD3FAC3EE412028C7BAB7A2A79CCAF
:100FEB0078431201861202CA8F458E448D438C4280
:100FFB00AF41AE40AD3FAC3EE412028C7B007A00B9
:10100B0079FA78421201867B007A007908784212CD
:10101B0000951202CA8F498E488D478C46AF49AE58
:10102B0048AD47AC46AB45AA44A943A842D31207E7
:10103B00774019C3E5459549F545E5449548F54491
:10104B00E5439547F543E5429546F542784274FFF3
:10105B0012078A7B007A0079007800C31207775059
:10106B00030080E822120041787FE4F6D8FD7581F9
:10107B007B0210BA020F0CE493A3F8E493A3400392
:10108B00F68001F208DFF48029E493A3F8540724D7
:10109B000CC8C333C4540F4420C8834004F4568097
:1010AB000146F6DFE4800B0102040810204080901B
:1010BB001305E47E019360BCA3FF543F30E5095454
:1010CB001FFEE493A360010ECF54C025E060A8403F
:1010DB00B8E493A3FAE493A3F8E493A3C8C582C836
:1010EB00CAC583CAF0A3C8C582C8CAC583CADFE90B
:1010FB00DEE780BED290C2927F327E007D007C0004
:10110B00120FD17BFF7A13794790FFC3E0FCA3E06A
:10111B00FDA3E0FEA3E0FFEF54FFFFEE5400FEED56
:10112B005400FDEC5400FC7E008E258F2612086DBA
:10113B007F1E7E007D007C00120FD1C290D292E503
:10114B00E85406FFEF1207B811600211640411682E
:10115B00060000116C75734B22757332227573196F
:10116B00227573642275A7007597A575590075587C
:10117B00007557007556007F197E007D007C00AB13
:10118B0059AA58A957A856C3120777502300AF592D
:10119B00AE58AD57AC567B017A0079007800EF2B37
:1011AB00F559EE3AF558ED39F557EC38F55680C749
:1011BB00A2AF920AC2AF7597DE7597ADA20A92AF36
:1011CB0022D2907F647E007D007C00120FD1C290F2
:1011DB007F647E007D007C00120FD1D2907F647EF5
:1011EB00007D007C00120FD1C2907F647E007D00D9
:1011FB007C00120FD1D2907F647E007D007C0012A8
:10120B000FD1C2902275A710E5985404F578539826
:10121B00FB75FF605398FC43980275A5FF75A4FE00
:10122B0075A3FF75A2FE439804E578429822D290ED
:10123B00C2927BFF7A13795512086D7F1E7E007D5B
:10124B00007C00120FD1D292C29043CD8022E5C810
:10125B005404F57653C8FB75CFFF75CE3475CBFFB1
:10126B0075CA3443C804E57642C82285887553880D
:10127B00AF758DF7E5755440FFE5755410FEEE4FD5
:10128B00FFEF42882275B30275B28075BB0D75DF17
:10129B000675BC0875B90353E8F943E8C22285A764
:1012AB006D75A700309807C29885996C8003756C93
:1012BB0000856DA7AF6C228F6E85A76F75A7003069
:1012CB0099FD856E99C299856FA7AF6E2243B18048
:1012DB00E5B15440FF7E00EF64404E70F32275A9D8
:1012EB0000E5A95480FF7E00EF4E60F52285A77BB9
:1012FB0075A700439812857BA72204080000000005
:10130B00020C08000075A50575F20F75D5F5227551
:10131B00A60975A72075CC092275A70075E3407542
:10132B00E1012275A7007589204388402275E60AE2
:10133B0075A8802275D18022759C012241542B4EB9
:10134B00414D4553574D2D25640041542B534C456E
:10135B004550320025752C25752C25752C257500CF
:00000001FF
