:020000040000FA
:10000000020F5E85A76B120FED1200461211DC1273
:1000100011E612120F1211F012115C12120B1211D2
:10002000A41211B51211421211251200561210D944
:100030001211FA12003D121204856BA72243981088
:1000400022223202007F75A41075F1FE75D441752D
:10005000FE4022020C13E5915404F56E5391FB759A
:10006000A71075FE6075A7004391037595D8759428
:10007000F07593D87592F0439104E56E4291228019
:0A00800005C29275A70053E6FD3299
:10008B000200420203D6E86480F8E933E8336011DA
:10009B000460F0ED33EC337009E8FCE9FDEAFEEBAC
:1000AB00FF220460DED3EB9FEA9EE99DE8C2E78C5A
:1000BB00F0C2F795F0400CE8CCF8E9CDF9EACEFAAE
:1000CB00EBCFFB1203A185D0F05804700320D5B3FE
:1000DB00E80470075002B2D50203E092D5EC04603D
:1000EB00F7E4CCC0E0C398F8603B94186008400D6F
:1000FB00D0E0FB0203B8E4FBFAC9FC8028E830E44B
:10010B0006E4C9FBE4CAFCE830E305E4C9CACBFC4E
:10011B00E854076010F8C3E913F9EA13FAEB13FB81
:10012B00EC13FCD8F130F52FC3E49CFCEF9BFFEEF6
:10013B009AFEED99FDD0E0FBEF4E4D4C701222DB99
:10014B00030203DDEC2CFCEF33FFEE33FEED33FD4E
:10015B00ED30E7EB0203B8EF2BFFEE3AFEED39FD86
:10016B00D0E0FB50130BBB00030203E0ED13FDEEDD
:10017B0013FEEF13FFEC13FC0203B8EC4D6011E818
:10018B00497017ED33EC3304600DE4FCFFFEFD22E8
:10019B00E933E8330470F80203D61203A158046064
:1001AB0009E4CC248150062850090203E0284003BF
:1001BB000203DDC0E0EB4A7044B98006D0E0FB02DD
:1001CB0003CCEF4E701CBD8008EBFFEAFEE9FD800F
:1001DB00EBE98DF0A4FEE5F002026FE9CDF9EAFE42
:1001EB00EBFFEF89F0A4FCE5F0CE89F0A42EFFE441
:1001FB0035F0CD89F0A42DFEE435F08067EF4E701D
:10020B0005BD80D780C3EF8BF0A4ACF0EE8BF0A4D0
:10021B002CFCE435F0F8EF8AF0A42CE5F038FCE484
:10022B0033CB8DF0A42CFCE5F03BF8EE8AF0A42C3C
:10023B00FCE5F038F8E433CF89F0A42CFCE5F0387A
:10024B00CF3400CE89F0A42FFFE5F03EFEE433C996
:10025B008DF0A42EFEE5F039CD8AF0A42FFFE5F04A
:10026B003EFEE43DFD33D0E0FB50070BBB000F021D
:10027B0003E0EC2CFCEF33FFEE33FEED33FD02031A
:10028B00B80203E0EC5D046005E859047003020357
:10029B00D61203A1580460F6EC4860F2EC7004FD32
:1002AB00FEFF22C860DB2481C85009C3986002504E
:1002BB00060203DD9850CAF582E9294B4A7005AB5B
:1002CB00820203CC75F0007C1A7880C3EF9BEE9A08
:1002DB00ED99400DC3EF9BFFEE9AFEED99FDE842C1
:1002EB00F0DC23ACF0D0E0FFD0E0FED0E0FDAB8241
:1002FB0020E7101BEB60BAEC2CFCEF33FFEE33FE68
:10030B00ED33FD0203B8E803F830E705C0F075F0F4
:10031B0000EF2FFFEE33FEED33FD40B830E7C28028
:10032B00AA75F020800E75F010800575F0087D0021
:10033B007E007F003392D530D503120702EC334099
:10034B0010EF33FFEE33FEED33FDEC33FCD5F0ED68
:10035B0022E5F0247EA2D513CC92E7CDCEFF22ED81
:10036B00D2E7CD33EC3392D524814006E4FFFEFD7A
:10037B00FC22FCE4CFCECDCC24E0501174FF80EDF9
:10038B00C3CC13CCCD13CDCE13CECF13CF0470F083
:10039B0030D5DE020702E9D2E7C933E833F892D54C
:1003AB00EDD2E7CD33EC33FC5002B2D522EC30E783
:1003BB00100FBF000C0EBE00080DBD00040BEB6050
:1003CB0014A2D5EB13FCED92E7FD2274FFFCFDFEAE
:1003DB00FF22E480F8A2D574FF13FC7D80E480EF4C
:1003EB00F920E72824F950037907E4F42402FB18D9
:1003FB00DBFDE624FB5014E9600DE4F618E604F689
:10040B00B40A08E4F6D9F57401F60A22C2D522ED36
:10041B0033EC3392D5FA602AB4FF33EDC2E77BFF9E
:10042B0060067A04793FE4227A04794820D5047A6D
:10043B00047943224E614E002B494E46002D494E06
:10044B004600E47A08F608DAFC7B00740722E8C061
:10045B00E0ECC0E0EDC0E0EEC0E0EFC0E0EA75F02C
:10046B0010A4CAABF075F04DA42BFBE435F0FCEAFD
:10047B002410FAEB34C5FBEC34D9FCEDC2E7FF7565
:10048B00F056A4F42411C5F0F434C58FF0A42AE57A
:10049B00F03BE43CF620E71412054DD0E0FFD0E032
:1004AB00FED0E0FDD0E0FC12028F8014F4041205A4
:1004BB004DD0E0FFD0E0FED0E0FDD0E0FC12018695
:1004CB00D0E0F8E6FAEDD2E7CD33EC332482FBE44F
:1004DB00C3CF33CFCE33CECD33CD33DBF37B0775E9
:1004EB00F00A846004F6081B0AE5F0F6088FF07436
:1004FB000AA4FFACF08EF0740AA42CFEACF05001F1
:10050B000C8DF0740AA42CFDE435F0F608DBDE74D8
:10051B0007223F8000004120000042C80000447ABF
:10052B000000461C400047C35000497424004B1880
:10053B0096804CBEBC205A0E1BCA6753C21C749DBE
:10054B00C5AEFB60065407601C232312057BEB54DE
:10055B00386009120567120576120186ECF8EDF981
:10056B00EEFAEFCB22EB12057680F1543803241C04
:10057B0090051DFE93FC0EEE93FD0EEE930ECE93A7
:10058B00FF22BB010689828A83E0225002E722BB4D
:10059B00FE02E32289828A83E49322BB010CE5826B
:1005AB0029F582E5833AF583E0225006E92582F8A6
:1005BB00E622BBFE06E92582F8E222E58229F582D6
:1005CB00E5833AF583E49322BB010689828A83F0A3
:1005DB00225002F722BBFE01F322E88FF0A4CC8B52
:1005EB00F0A42CFCE98EF0A42CFC8AF0EDA42CFCDE
:1005FB00EA8EF0A4CDA8F08BF0A42DCC3825F0FD1D
:10060B00E98FF0A42CCD35F0FCEB8EF0A4FEA9F015
:10061B00EB8FF0A4CFC5F02ECD39FEE43CFCEAA461
:10062B002DCE35F0FDE43CFC2275F008758200EF11
:10063B002FFFEE33FECD33CDCC33CCC58233C58209
:10064B009BED9AEC99E58298400CF582EE9BFEEDC2
:10065B009AFDEC99FC0FD5F0D6E4CEFBE4CDFAE491
:10066B00CCF9A88222B800C1B90059BA002DEC8B85
:10067B00F084CFCECDFCE5F0CBF97818EF2FFFEE61
:10068B0033FEED33FDEC33FCEB33FB10D70399401A
:10069B0004EB99FB0FD8E5E4F9FA227818EF2FFF5A
:1006AB00EE33FEED33FDEC33FCC933C910D7059B9C
:1006BB00E99A4007EC9BFCE99AF90FD8E0E4C9FAF8
:1006CB00E4CCFB2275F010EF2FFFEE33FEED33FD84
:1006DB00CC33CCC833C810D7079BEC9AE899400AA7
:1006EB00ED9BFDEC9AFCE899F80FD5F0DAE4CDFB25
:1006FB00E4CCFAE4C8F922C3E49FFFE49EFEE49D38
:10070B00FDE49CFC22EB9FF5F0EA9E42F0E99D4252
:10071B00F0E89C45F0227401FF3395E0FEFDFC08E8
:10072B000808E6CF2FF618E6CE3EF618E6CD3DF6D6
:10073B0018E6CC3CF622FAE6FB0808E6F925F0F6BB
:10074B0018E6CA3AF622D083D082F8E4937012747A
:10075B000193700DA3A393F8740193F5828883E43E
:10076B00737402936860EFA3A3A380DFD083D0825E
:10077B00F8E4937012740193700DA3A393F87401B2
:10078B0093F5828883E473740293B5F00674039334
:10079B006860E9A3A3A3A380D8E5392425F8E6056F
:1007AB00392278223007027825E475F001120741CF
:1007BB0002058D2000EB7F2ED2008018EF540F2402
:1007CB0090D43440D4FF30040BEF24BFB41A005044
:1007DB00032461FFE53A6002153A053DE53D7002E1
:1007EB00053C30070D7822E475F001120741EF024A
:1007FB0005D302118E7403D2078003E4C207F539C7
:10080B008B228A238924E4F53AF53CF53DE53A60E1
:10081B00077F201207DF80F5753BFFC201C200C2C4
:10082B0002C203C205C206C2081207ADFF700D302B
:10083B0007057F001207F0AF3DAE3C22B4255FC227
:10084B00D5C2041207ADFF24D0B40A00501A75F0BC
:10085B000A783A30D50508B6FF0106C6A426F6205D
:10086B00D5047002D20380D924CFB41A00EF500400
:10087B00C2E5D204020ADDD20180C6D20080C0D20A
:10088B000280BCD2D580BAD20580B47F201207DF9C
:10089B002002077401B53A0040F11207A4FF1207BA
:1008AB00DF020818D208D20680951207A4FB1207A4
:1008BB00A4FA1207A4F94A4B700679D47A0B7BFF82
:1008CB0020022EE53A602A7E008E82758300120587
:1008DB00A660060EEE653B70F0C2D5EBC0E0EAC039
:1008EB00E0E9C0E0EE120B3DD0E0F9D0E0FAD0E049
:1008FB00FB12058DFF60AAEBC0E0EAC0E0E9C0E0A7
:10090B001207DFD0E02401F9D0E03400FAD0E0FB8D
:10091B00E53B0460DCD53BD98087D20280A2120B69
:10092B002060F7E53B7001041203EBA93B600DE57A
:10093B003B600914F53B120BC7EF60F3EA30E7029B
:10094B00F404C3995077EAF4253B0430E701E4043F
:10095B00F53B800D120B2060C1EA053B253B1203D2
:10096B00EBEA7838F630E701E4253B04D53B04206D
:10097B00050114120B3DE4C0E0120BC77838E6609A
:10098B001320E70714F61207C7802204F6D0E014F1
:10099B00C0E07F001207C7E53B60071207BE153B9F
:1009AB00800B3005031207BED0E0020818D0E0041C
:1009BB0080C5120B2060A0E53B041203EB7838EAEC
:1009CB00F6E53B2005026001042404120B3D74FF85
:1009DB0004C0E0120BC71207C7E53B2005026003FA
:1009EB001207BED0E0B53BE87F451207D17838E659
:1009FB007F2B30E7047F2DF404C0E01207DFD0E03B
:100A0B0075F00A84C0F01207C8D0E01207C80208BC
:100A1B0018791080027908C206C2088008D2D579ED
:100A2B000A8004790AC2D5E53B047002F53BE4FA6F
:100A3B00FDFEFF1207A4FC7B082001131207A4FD87
:100A4B007B1030000A1207A4FE1207A4FF7B20ECD8
:100A5B003382D592D55013C3E43000069FFFE49E3A
:100A6B00FEE42001039DFDE49CFCE4CBF8C201EC09
:100A7B00700CCFCECDCCE824F8F870F38017C3EF11
:100A8B0033FFEE33FEED33FDEC33FCEB33FB9940E0
:100A9B0002FB0FD8E9EB300105F8D0E0C448B201F6
:100AAB00C0E00AEC4D4E4F78207B0070C2EAB53B9C
:100ABB000040BCC0E0120B3FD0F0D0E0200104C4DA
:100ACB00C0E0C4B201C0F01207C8D0F0D5F0EB0201
:100ADB00081812075108B5530A1C5808864C08828F
:100AEB00420A204F0A28440A2849089B430A2E55DC
:100AFB00095F4609BD450929470BF450088A2D08A3
:100B0B008E2E08B12B08922308AF200BDD2A084A42
:100B1B0048000008A9E53BB4FF03753B061207A488
:100B2B00FC1207A4FD1207A4FE1207A4FF783102E2
:100B3B00041A790AA2D5200314300509B91002044E
:100B4B0004B9080104A2D520060250010420026852
:100B5B009202B53A005034C0E07F203003197F3049
:100B6B00A20272067205500F120B96C202C206C287
:100B7B0005C2087F30800F300503E9C0E01207DFA4
:100B8B00300503D0E0F9D0E0B53ACC3005177F3013
:100B9B00B9100C1207DF7F583004077F788003B938
:100BAB0008031207DF3002057F2D0207DF7F2020AD
:100BBB0008F87F2B2006F322920280CF7F00B40728
:100BCB000050052431F8E6FF22286E756C6C290065
:100BDB00D2011207A43001F8C201783A30D50108CE
:100BEB00F602084A2D504349581207A42403B405B2
:100BFB00004001E4900BEF931207D0743A1207D028
:100C0B00D203753A04020A1CC0E0C0F0C083C08254
:100C1B00C0D075D000C000C001C002C003C004C06A
:100C2B0005C006C007754D00754C00754B00754A25
:100C3B0000E50F850EF01207770C5800000C5D00D5
:100C4B00010C6200020C67000300000C6A75BB0DFF
:100C5B00800D75BB0C800875BB0B800375BB0AAF91
:100C6B00BDAEBEE4FCFDE50B2FF50BE50A3EF50A28
:100C7B00E5093DF509E5083CF508E50D150D700294
:100C8B00150CE50D450C6003020DF8750C08750D80
:100C9B00007B007A0879007800AF0BAE0AAD09AC87
:100CAB00081206708F4D8E4C8D4B8C4A750B007550
:100CBB000A007509007508007FE47E0C7D007C003E
:100CCB00AB4DAA4CA94BA84A1205E57BFF7A3F799D
:100CDB000078001206708F518E508D4F8C4EE50FA1
:100CEB00850EF01207770D0500000D5300010D7EE8
:100CFB0000020DA9000300000DF07F607E097D004E
:100D0B007C00AB4DAA4CA94BA84A1205E5E4120393
:100D1B002C7B007AFD793F784612028F7B007A009C
:100D2B00797A78441201867B007A007948784312ED
:100D3B00028F12036A8F558E548D538C52AE54AF63
:100D4B00558E108F11020DF07F607E097D007C00A7
:100D5B00AB4DAA4CA94BA84A1205E5E412032C7B18
:100D6B00007AFD793F784612028F12036A8E128F3A
:100D7B001380727F607E097D007C00AB4DAA4CA96D
:100D8B004BA84A1205E5E412032C7B007AFD793F50
:100D9B00784612028F12036A8E148F158047AE505D
:100DAB00AF518E168F177F807EA97D037C00AB4DD4
:100DBB00AA4CA94BA84A1205E5E412032C7B007A36
:100DCB00FD793F784612028F7B007A0079F07842EA
:100DDB001201867B007A007920784112028F120370
:100DEB006A8E168F17050FE50F7002050EC2EDD038
:100DFB0007D006D005D004D003D002D001D000D04C
:100E0B00D0D082D083D0F0D0E032C20A12000312CD
:100E1B0011C4C2B4D2A2D299D2AF12104912117519
:100E2B008F6AAF6A7E00EF4E602D7B007A00796A85
:100E3B00120806E56A1207510E4D310E5A320000A8
:100E4B000E8212109575A3FF75A2FED20A8028C2DE
:100E5B000A802480228020300A1D7FF47E017D00D1
:100E6B007C00120EBFC209121102C2927F327E00A9
:100E7B007D007C00120EBFE50F6404450E70F8E593
:100E8B000F6404450E7096B290750E00750F007BC3
:100E9B00FF7A12792B85102585112685122785134C
:100EAB002885142985152A85162B85172C120806DB
:100EBB00020E28228F418E408D3F8C3EAF41AE40BB
:100ECB00AD3FAC3EE412032C7BAB7A2A79CC784352
:100EDB0012018612036A8F458E448D438C42AF41BB
:100EEB00AE40AD3FAC3EE412032C7B007A0079FAA6
:100EFB0078421201867B007A0079087842120095BD
:100F0B0012036A8F498E488D478C46AF49AE48AD68
:100F1B0047AC46AB45AA44A943A842D3120710409D
:100F2B0019C3E5459549F545E5449548F544E54331
:100F3B009547F543E5429546F542784274FF120713
:100F4B00237B007A0079007800C31207105003004E
:100F5B0080E822120041787FE4F6D8FD7581720299
:100F6B000FA8020E15E493A3F8E493A34003F680B5
:100F7B0001F208DFF48029E493A3F85407240CC88A
:100F8B00C333C4540F4420C8834004F45680014635
:100F9B00F6DFE4800B01020408102040809011D191
:100FAB00E47E019360BCA3FF543F30E509541FFE60
:100FBB00E493A360010ECF54C025E060A840B8E4D1
:100FCB0093A3FAE493A3F8E493A3C8C582C8CAC554
:100FDB0083CAF0A3C8C582C8CAC583CADFE9DEE7E6
:100FEB0080BE75A7007597A5751B00751A0075193E
:100FFB00007518007F197E007D007C00AB1BAA1AC0
:10100B00A919A818C3120710502300AF1BAE1AADB5
:10101B0019AC187B017A0079007800EF2BF51BEEE9
:10102B003AF51AED39F519EC38F51880C7A2AF92DD
:10103B000BC2AF7597DE7597ADA20B92AF22D29014
:10104B00C2927F327E007D007C00120EBF7BFF7A46
:10105B0012791390FFC3E0FCA3E0FDA3E0FEA3E035
:10106B00FFEF54FFFFEE5400FEED5400FDEC540077
:10107B00FC7E008E258F261208067F1E7E007D00CB
:10108B007C00120EBFC290D29222D2907F647E005F
:10109B007D007C00120EBFC2907F647E007D007CC1
:1010AB0000120EBFD2907F647E007D007C00120E7A
:1010BB00BFC2907F647E007D007C00120EBFD29079
:1010CB007F647E007D007C00120EBFC2902275A74C
:1010DB0010E5985404F56F5398FB75FF605398FC1B
:1010EB0043980275A5FF75A4FE75A3FF75A2FE4379
:1010FB009804E56F429822D290300918C2927BFF78
:10110B007A1279211208067F1E7E007D007C001268
:10111B000EBFD292C29043CD8022E5C85404F56D28
:10112B0053C8FB75CFFF75CE3475CBFF75CA3443EF
:10113B00C804E56D42C82285886C5388AF758DF75E
:10114B00E56C5440FFE56C5410FEEE4FFFEF428808
:10115B002275B30275B28075BB0D75DF0675BC08C1
:10116B0075B90353E8F943E8C22285A76575A70053
:10117B00309807C29885996480037564008565A7CC
:10118B00AF64228F6685A76775A7003099FD8566CA
:10119B0099C2998567A7AF662243B180E5B15440E8
:1011AB00FF7E00EF64404E70F32275A900E5A95451
:1011BB0080FF7E00EF4E60F52285A77275A7004376
:1011CB0098128572A722040800000000020C080088
:1011DB000075A50575F20F75D5F52275A60975A7CE
:1011EB002075CC092275A70075E34075E1012275C6
:1011FB00A7007589204388402275E60A75A88022CE
:10120B0075D18022759C012241542B4E414D455383
:10121B00574D2D25640041542B534C4545503200FE
:0C122B0025752C25752C25752C257500CB
:00000001FF
