:020000040000FA
:10000000020F5285A762121062120046121182126C
:10001000118C1211BE1211961211531211BA120044
:10002000341211201211031211A81211B61211AFBD
:100030008562A72275A900E5A95480FF7E00EF4ED6
:1000400060F52202116C75A41075F1FE75D441752E
:10005000FE4022020C780202FEE86480F8E933E8F0
:100060003360110460F0ED33EC337009E8FCE9FD16
:10007000EAFEEBFF220460DED3EB9FEA9EE99DE8F7
:10008000C2E78CF0C2F795F0400CE8CCF8E9CDF966
:10009000EACEFAEBCFFB1202C985D0F05804700308
:1000A00020D5B3E80470075002B2D502030892D5F8
:1000B000EC0460F7E4CCC0E0C398F8603B941860AF
:1000C00008400DD0E0FB0202E0E4FBFAC9FC802806
:1000D000E830E406E4C9FBE4CAFCE830E305E4C91F
:1000E000CACBFCE854076010F8C3E913F9EA13FA25
:1000F000EB13FBEC13FCD8F130F52FC3E49CFCEFC1
:100100009BFFEE9AFEED99FDD0E0FBEF4E4D4C705B
:100110001222DB03020305EC2CFCEF33FFEE33FE6F
:10012000ED33FDED30E7EB0202E0EF2BFFEE3AFEA0
:10013000ED39FDD0E0FB50130BBB0003020308EDCB
:1001400013FDEE13FEEF13FFEC13FC0202E0EC4D87
:100150006011E8497017ED33EC3304600DE4FCFFE7
:10016000FEFD22E933E8330470F80202FE1202C9F0
:1001700058046009E4CC2481500628500902030881
:10018000284003020305C0E0EB4A7044B98006D062
:10019000E0FB0202F4EF4E701CBD8008EBFFEAFEAC
:1001A000E9FD80EBE98DF0A4FEE5F0020237E9CD30
:1001B000F9EAFEEBFFEF89F0A4FCE5F0CE89F0A4AC
:1001C0002EFFE435F0CD89F0A42DFEE435F08067F4
:1001D000EF4E7005BD80D780C3EF8BF0A4ACF0EE7E
:1001E0008BF0A42CFCE435F0F8EF8AF0A42CE5F0B9
:1001F00038FCE433CB8DF0A42CFCE5F03BF8EE8A20
:10020000F0A42CFCE5F038F8E433CF89F0A42CFC02
:10021000E5F038CF3400CE89F0A42FFFE5F03EFEA4
:10022000E433C98DF0A42EFEE5F039CD8AF0A42F79
:10023000FFE5F03EFEE43DFD33D0E0FB50070BBB95
:10024000000F020308EC2CFCEF33FFEE33FEED331E
:10025000FD0202E075F020800E75F010800575F04B
:10026000087D007E007F003392D530D503120767EA
:10027000EC334010EF33FFEE33FEED33FDEC33FC97
:10028000D5F0ED22E5F0247EA2D513CC92E7CDCEB9
:10029000FF22EDD2E7CD33EC3392D524814006E442
:1002A000FFFEFDFC22FCE4CFCECDCC24E050117447
:1002B000FF80EDC3CC13CCCD13CDCE13CECF13CF57
:1002C0000470F030D5DE020767E9D2E7C933E833BE
:1002D000F892D5EDD2E7CD33EC33FC5002B2D52203
:1002E000EC30E7100FBF000C0EBE00080DBD00047F
:1002F0000BEB6014A2D5EB13FCED92E7FD2274FF2B
:10030000FCFDFEFF22E480F8A2D574FF13FC7D8083
:10031000E480EFF920E72824F950037907E4F42476
:1003200002FB18DBFDE624FB5014E9600DE4F6182F
:10033000E604F6B40A08E4F6D9F57401F60A22C216
:10034000D522ED33EC3392D5FA602AB4FF33EDC2F7
:10035000E77BFF60067A037967E4227A03797020ED
:10036000D5047A03796B224E614E002B494E46002C
:100370002D494E4600E47A08F608DAFC7B00740743
:1003800022E8C0E0ECC0E0EDC0E0EEC0E0EFC0E08D
:10039000EA75F010A4CAABF075F04DA42BFBE43560
:1003A000F0FCEA2410FAEB34C5FBEC34D9FCEDC2C6
:1003B000E7FF75F056A4F42411C5F0F434C58FF0AE
:1003C000A42AE5F03BE43CF620E714120515D0E042
:1003D000FFD0E0FED0E0FDD0E0FC1204488014F431
:1003E00004120515D0E0FFD0E0FED0E0FDD0E0FC27
:1003F00012014ED0E0F8E6FAEDD2E7CD33EC33242B
:1004000082FBE4C3CF33CFCE33CECD33CD33DBF35A
:100410007B0775F00A846004F6081B0AE5F0F6080D
:100420008FF0740AA4FFACF08EF0740AA42CFEAC1A
:10043000F050010C8DF0740AA42CFDE435F0F608A0
:10044000DBDE740722020308EC5D046005E8590452
:1004500070030202FE1202C9580460F6EC4860F212
:10046000EC7004FDFEFF22C860DB2481C85009C384
:1004700098600250060203059850CAF582E9294B9C
:100480004A7005AB820202F475F0007C1A7880C3D2
:10049000EF9BEE9AED99400DC3EF9BFFEE9AFEEDB8
:1004A00099FDE842F0DC23ACF0D0E0FFD0E0FED0D4
:1004B000E0FDAB8220E7101BEB60BAEC2CFCEF33C5
:1004C000FFEE33FEED33FD0202E0E803F830E7050E
:1004D000C0F075F000EF2FFFEE33FEED33FD40B8B6
:1004E00030E7C280AA3F8000004120000042C800DF
:1004F00000447A0000461C400047C3500049742461
:10050000004B1896804CBEBC205A0E1BCA6753C2C3
:100510001C749DC5AEFB60065407601C23231205A6
:1005200043EB5438600912052F12053E12014EECC0
:10053000F8EDF9EEFAEFCB22EB12053E80F15438DC
:1005400003241C9004E5FE93FC0EEE93FD0EEE9347
:100550000ECE93FF22BB010689828A83E0225002DD
:10056000E722BBFE02E32289828A83E49322BB0155
:100570000CE58229F582E5833AF583E0225006E90D
:100580002582F8E622BBFE06E92582F8E222E58212
:1005900029F582E5833AF583E49322BB010689823B
:1005A0008A83F0225002F722BBFE01F322EF8DF086
:1005B000A4A8F0CF8CF0A428CE8DF0A42EFE22BCEF
:1005C000000BBE0029EF8DF084FFADF022E4CCF8E3
:1005D00075F008EF2FFFEE33FEEC33FCEE9DEC9848
:1005E0004005FCEE9DFE0FD5F0E9E4CEFD22EDF8CE
:1005F000F5F0EE8420D21CFEADF075F008EF2FFF71
:10060000ED33FD4007985006D5F0F222C398FD0F58
:10061000D5F0EA22C2D5EC30E709B2D5E4C39DFD9E
:10062000E49CFCEE30E715B2D5E4C39FFFE49EFEE8
:100630001205BFC3E49DFDE49CFC80031205BF309E
:10064000D507C3E49FFFE49EFE22E88FF0A4CC8B85
:10065000F0A42CFCE98EF0A42CFC8AF0EDA42CFC78
:10066000EA8EF0A4CDA8F08BF0A42DCC3825F0FDB7
:10067000E98FF0A42CCD35F0FCEB8EF0A4FEA9F0B0
:10068000EB8FF0A4CFC5F02ECD39FEE43CFCEAA4FC
:100690002DCE35F0FDE43CFC2275F008758200EFAC
:1006A0002FFFEE33FECD33CDCC33CCC58233C582A4
:1006B0009BED9AEC99E58298400CF582EE9BFEED5D
:1006C0009AFDEC99FC0FD5F0D6E4CEFBE4CDFAE42C
:1006D000CCF9A88222B800C1B90059BA002DEC8B20
:1006E000F084CFCECDFCE5F0CBF97818EF2FFFEEFC
:1006F00033FEED33FDEC33FCEB33FB10D7039940B5
:1007000004EB99FB0FD8E5E4F9FA227818EF2FFFF4
:10071000EE33FEED33FDEC33FCC933C910D7059B36
:10072000E99A4007EC9BFCE99AF90FD8E0E4C9FA92
:10073000E4CCFB2275F010EF2FFFEE33FEED33FD1E
:10074000CC33CCC833C810D7079BEC9AE899400A41
:10075000ED9BFDEC9AFCE899F80FD5F0DAE4CDFBBF
:10076000E4CCFAE4C8F922C3E49FFFE49EFEE49DD2
:10077000FDE49CFC22EB9FF5F0EA9E42F0E99D42ED
:10078000F0E89C45F0227401FF3395E0FEFDFC0883
:100790000808E6CF2FF618E6CE3EF618E6CD3DF671
:1007A00018E6CC3CF622FAE6FB0808E6F925F0F656
:1007B00018E6CA3AF622D083D082F8E49370127415
:1007C0000193700DA3A393F8740193F5828883E4D9
:1007D000737402936860EFA3A3A380DFD083D082F9
:1007E000F8E4937012740193700DA3A393F874014D
:1007F00093F5828883E473740293B5F006740393CF
:100800006860E9A3A3A3A380D8E5392425F8E60509
:10081000392278223007027825E475F0011207A604
:100820000205552000EB7F2ED2008018EF540F24D4
:1008300090D43440D4FF30040BEF24BFB41A0050DE
:10084000032461FFE53A6002153A053DE53D70027B
:10085000053C30070D7822E475F0011207A6EF027F
:10086000059B0211A07403D2078003E4C207F53987
:100870008B228A238924E4F53AF53CF53DE53A607C
:10088000077F2012084480F5753BFFC201C200C2F9
:1008900002C203C205C206C208120812FF700D3060
:1008A00007057F00120855AF3DAE3C22B4255FC25C
:1008B000D5C204120812FF24D0B40A00501A75F0F1
:1008C0000A783A30D50508B6FF0106C6A426F620F8
:1008D000D5047002D20380D924CFB41A00EF50049B
:1008E000C2E5D204020B42D20180C6D20080C0D23F
:1008F0000280BCD2D580BAD20580B47F20120844D1
:100900002002077401B53A0040F1120809FF1208ED
:100910004402087DD208D2068095120809FB12080D
:1009200009FA120809F94A4B700679397A0C7BFFEB
:1009300020022EE53A602A7E008E82758300120521
:100940006E60060EEE653B70F0C2D5EBC0E0EAC00B
:10095000E0E9C0E0EE120BA2D0E0F9D0E0FAD0E07E
:10096000FB120555FF60AAEBC0E0EAC0E0E9C0E079
:10097000120844D0E02401F9D0E03400FAD0E0FBC2
:10098000E53B0460DCD53BD98087D20280A2120B04
:100990008560F7E53B700104120313A93B600DE588
:1009A0003B600914F53B120C2CEF60F3EA30E702D0
:1009B000F404C3995077EAF4253B0430E701E404DA
:1009C000F53B800D120B8560C1EA053B253B120308
:1009D00013EA7838F630E701E4253B04D53B0420E0
:1009E000050114120BA2E4C0E0120C2C7838E6606A
:1009F0001320E70714F612082C802204F6D0E01426
:100A0000C0E07F0012082CE53B6007120823153B6D
:100A1000800B300503120823D0E002087DD0E004EB
:100A200080C5120B8560A0E53B041203137838EAF9
:100A3000F6E53B2005026001042404120BA274FFBA
:100A400004C0E0120C2C12082CE53B2005026003C8
:100A5000120823D0E0B53BE87F451208367838E627
:100A60007F2B30E7047F2DF404C0E0120844D0E06F
:100A700075F00A84C0F012082DD0E012082D02088B
:100A80007D791080027908C206C2088008D2D57923
:100A90000A8004790AC2D5E53B047002F53BE4FA0A
:100AA000FDFEFF120809FC7B08200113120809FD56
:100AB0007B1030000A120809FE120809FF7B20ECA7
:100AC0003382D592D55013C3E43000069FFFE49ED5
:100AD000FEE42001039DFDE49CFCE4CBF8C201ECA4
:100AE000700CCFCECDCCE824F8F870F38017C3EFAC
:100AF00033FFEE33FEED33FDEC33FCEB33FB99407B
:100B000002FB0FD8E9EB300105F8D0E0C448B20190
:100B1000C0E00AEC4D4E4F78207B0070C2EAB53B36
:100B20000040BCC0E0120BA4D0F0D0E0200104C40F
:100B3000C0E0C4B201C0F012082DD0F0D5F0EB0235
:100B4000087D1207B6091A530A815808EB4C08E7CA
:100B5000420A854F0A8D440A8D490900430A93557C
:100B600009C4460A2245098E470C595008EF2D0842
:100B7000F32E09162B08F7230914200C422A08AF7C
:100B8000480000090EE53BB4FF03753B0612080957
:100B9000FC120809FD120809FE120809FF7831024B
:100BA0000342790AA2D5200314300509B9100204C2
:100BB00004B9080104A2D5200602500104200268ED
:100BC0009202B53A005034C0E07F203003197F30E4
:100BD000A20272067205500F120BFBC202C206C2BD
:100BE00005C2087F30800F300503E9C0E0120844D9
:100BF000300503D0E0F9D0E0B53ACC3005177F30AE
:100C0000B9100C1208447F583004077F788003B96C
:100C100008031208443002057F2D0208447F20207B
:100C200008F87F2B2006F322920280CF7F00B407C2
:100C30000050052431F8E6FF22286E756C6C2900FF
:100C4000D2011208093001F8C201783A30D5010802
:100C5000F60208AF2D504349581208092403B40581
:100C6000004001E4900C5493120835743A12083590
:100C7000D203753A04020A81C0E0C0F0C083C0828A
:100C8000C0D075D000C000C001C002C003C004C005
:100C900005C006C007754100754000753F00753EF0
:100CA00000E5118510F01207DC0CBD00000CC2003D
:100CB000010CC700020CCC000300000CCF75BB0D6B
:100CC000800D75BB0C800875BB0B800375BB0AAF2C
:100CD000BDAEBEE4FCFDE50B2FF50BE50A3EF50AC3
:100CE000E5093DF509E5083CF508E50D150D70022F
:100CF000150CE50D450C6003020E96750C08750D7C
:100D0000007B007A0879007800AF0BAE0AAD09AC21
:100D1000081206D58F418E408D3F8C3E750B0075B5
:100D20000A007509007508007FE47E0C7D007C00D8
:100D3000AB41AA40A93FA83E12064A7BFF7A3F7901
:100D40000078001206D58F458E448D438C42754A3B
:100D500000754B1E754C00754D38754A00754B0A71
:100D6000750E00750FC8E5118510F01207DC0D82B5
:100D700000000E0A00010E7C00020E860003000037
:100D80000E8EAF617E007C3F7DFF1205AD7C007D45
:100D9000641205BFE4FCFDC004C005C006C0077FA7
:100DA000607E097D007C00AB41AA40A93FA83E12AD
:100DB000064AD003D002D001D0001206D57BE87AD3
:100DC000037900780012064AC004C005C006C007B7
:100DD000AC4AAD4BAE0EAF0F1205AD7C007D0A12D2
:100DE0000614AB07AA06EA3395E0F9F8D007D00657
:100DF000D005D0041206D58F498E488D478C46AE5B
:100E000048AF498E128F13020E8E7FCD7E0C7D006F
:100E10007C00AB41AA40A93FA83E12064A7BFF7A5C
:100E20003F790078001206D57BE87A0379007800D4
:100E300012064AC004C005C006C007AE4AAF4B7CCC
:100E4000007DC81205AD7C007D0A120614AB07AA0E
:100E500006EA3395E0F9F8D007D006D005D00412A1
:100E600006D58F498E488D478C46AE48AF498E14C3
:100E70008F15AE44AF458E148F158012AE44AF452A
:100E80008E168F178008AE44AF458E188F19051146
:100E9000E51170020510C2EDD007D006D005D004D0
:100EA000D003D002D001D000D0D0D082D083D0F0F7
:100EB000D0E0328F518E508D4F8C4EAF51AE50AD31
:100EC0004FAC4EE41202547BAB7A2A79CC784312B1
:100ED000014E1202928F558E548D538C52AF51AEEB
:100EE00050AD4FAC4EE41202547B007A0079FA7890
:100EF0004212014E7B007A007908784212005D129E
:100F000002928F598E588D578C56AF59AE58AD57A7
:100F1000AC56AB55AA54A953A852D3120775401921
:100F2000C3E5559559F555E5549558F554E5539550
:100F300057F553E5529556F552785274FF120788CB
:100F40007B007A0079007800C31207755003008097
:100F5000E8221211C2787FE4F6D8FD758164020F91
:100F60009C0210BEE493A3F8E493A34003F680012F
:100F7000F208DFF48029E493A3F85407240CC8C3D3
:100F800033C4540F4420C8834004F456800146F60D
:100F9000DFE4800B0102040810204080901177E408
:100FA0007E019360BCA3FF543F30E509541FFEE46B
:100FB00093A360010ECF54C025E060A840B8E4932D
:100FC000A3FAE493A3F8E493A3C8C582C8CAC5836F
:100FD000CAF0A3C8C582C8CAC583CADFE9DEE780F4
:100FE000BED290C29290FFC3E0FCA3E0FDA3E0FE5E
:100FF000A3E0FF8F1D8E1C8D1B8C1AE51D54FFFF77
:10100000E51C5400FEE51B5400FDE51A5400FC8F5E
:101010001E7F327E007D007C00120EB37BFF7A11B2
:1010200079C3AF1E7E008E258F2612086B7F1E7E31
:10103000007D007C00120EB3C290D292E5E8540607
:10104000FFEF1207B6105202105604105A060000A5
:10105000105E75614B2275613222756119227561CE
:10106000642275A7007597A5755D00755C00755BBA
:1010700000755A007F197E007D007C00AB5DAA5C84
:10108000A95BA85AC3120775502300AF5DAE5CADD3
:101090005BAC5A7B017A0079007800EF2BF55DEEAE
:1010A0003AF55CED39F55BEC38F55A80C7A2AF92A2
:1010B00009C2AF7597DE7597ADA20992AF22756030
:1010C00000120003C2B4D2A2D299D2AF120FE1E54E
:1010D000116404451070F8B2907510007511007B12
:1010E000FF7A1179D1851225851326851427851558
:1010F0002885162985172A85182B85192C12086B27
:1011000080CD22E5C85404F56453C8FB75CFFF7544
:10111000CE3475CBFF75CA3443C804E56442C82297
:101120008588635388AF758DF7E5635440FFE563A9
:101130005410FEEE4FFFEF4288228F5FE55FB40A46
:10114000083099FDC29975990D3099FDC299AF5F2C
:101150008F992275B30275B28075BB0D75DF067568
:10116000BC0875B90353E8F943E8C2228005C2926E
:1011700075A70053E6FD32040800000000020C08C9
:10118000000075A50575F20F75D5F52275A60975D0
:10119000A72075CC092275A70075E34075E10122EF
:1011A0008F1FAF1F12113A22758920438840227584
:1011B000E60A75A880224398102275D18022759C7A
:1011C00001222241542B4E414D4553574D2D25644C
:0D11D0000025642C25642C25642C2564006A
:00000001FF
